:04000000F6EFFFF028
:1010000000008C808C828C84050E026E0F0E016EA7
:10101000F10EE82EFED7012EFCD7022EFAD70000E3
:101020008C908C92050E026E0F0E016EF10EE82E62
:10103000FED7012EFCD7022EFAD700008F8C0E01AE
:10104000E88F8C86050E026E0F0E016EF10EE82EF3
:10105000FED7012EFCD7022EFAD700008F9C0E017E
:10106000E89F050E026E0F0E016EF10EE82EFED700
:10107000012EFCD7022EFAD700008C808C828C9433
:10108000050E026E0F0E016EF10EE82EFED7012E38
:10109000FCD7022EFAD700008C908C92050E026EBF
:1010A0000F0E016EF10EE82EFED7012EFCD7022E98
:1010B000FAD700008F8C0E01E88F8C96050E026E19
:1010C0000F0E016EF10EE82EFED7012EFCD7022E78
:1010D000FAD700008F9C0E01E89F050E026E0F0EDE
:1010E000016EF10EE82EFED7012EFCD7022EFAD7A4
:1010F00000001200989C0E01E99F9596959095929C
:1011000095948F9CE89F8C908C928C948C96120076
:101110007AEC08F001EC08F08AEF08F0F6EFFFF047
:06112000000188EF08F059
:020000040001F9
:04FFEC0090EF08F09A
:10FFF00080F4AFF012F0FFF7FBFFFBFC19F0F8F311
:00000001FF
