:04000000F6EFFFF028
:1010000000000E01E5918D8E0D6A1FEF08F0A6AA73
:101010000CEF08F00EEF08F007EF08F00F012FA318
:1010200014EF08F016EF08F018EF08F02F992F8949
:101030000B500D24D96EDA6A2ACFDFFF0D2A0C502F
:101040000D5CD8A026EF08F028EF08F007EF08F0B5
:101050008D9E12000E01456B466B476B669C92920B
:10106000978CE6912D51F00B0A092D6F12510F0B41
:101070003009126F92809696969EF00E2C17225190
:101080000F0B2009226F668C12000E01FE85FE995F
:10109000FE8BFF89FF8FFD97190EFB6F0F012E85C9
:1010A0002E992E8B2F892F8F2D97190E2B6F1200B3
:1010B0002AEC08F045EC08F0010E0B6E050E0C6EE4
:1010C00001EC08F062EF08F0F6EFFFF000EE01F03F
:0E10D0000A0EEE6AE806FDE1000158EF08F096
:020000040001F9
:04FFEC0066EF08F0C4
:10FFF00080F4AFF012F0FFF7FBFFFBFC19F0F8F311
:00000001FF
