:04000000F6EFFFF028
:101000000000046EA0EC08F05E0E8AEC08F00B0EF7
:10101000026E620EE82EFED7022EFCD700D0000E24
:101020008AEC08F00B0E026E620EE82EFED7022E3E
:10103000FCD700D004508AEC08F00B0E026E620E52
:10104000E82EFED7022EFCD700D096EC08F0030E57
:10105000036E080E026E770EE82EFED7022EFCD726
:10106000032EFAD700001200030E066E080E056E5E
:10107000770EE82EFED7052EFCD7062EFAD70000F5
:1010800063EC08F00F0E7BEC08F08A0E01EC08F020
:10109000030E066E080E056E770EE82EFED7052E9F
:1010A000FCD7062EFAD700000B0E066E260E056E34
:1010B0005E0EE82EFED7052EFCD7062EFAD754EF8B
:1010C00008F0F6EFFFF0020E026E040E016EBA0E8B
:1010D000E82EFED7012EFCD7022EFAD700D00F0142
:1010E000198B1A6B1A8F270E026F280E196F186B47
:1010F000958A958C1200026EA0EC08F05E0E8AECC8
:1011000008F0100E8AEC08F002508AEC08F096EC19
:1011100008F01200016E01C003FF0F011AA193EF46
:1011200008F095EF08F08DEF08F012000F01188518
:1011300018B59DEF08F09FEF08F098EF08F0120047
:101140000F01188118B1A7EF08F0A9EF08F0A2EF7E
:1011500008F012000B6A0A6A096A086A076A000145
:0411600034EF08F070
:020000040001F9
:04FFEC00AAEF08F080
:10FFF00080F4AFF012F0FFF7FBFFFBFC19F0F8F311
:00000001FF
