:04000000F6EFFFF028
:1010000000002B50800B346E2B502B243A6E2AAEEE
:101010000CEF08F00EEF08F00FEF08F03A803A50AE
:10102000D8B415EF08F017EF08F02AEF08F03A28C7
:10103000D8A41DEF08F01FEF08F027EF08F0000E0E
:10104000286E000E296E000E2A6E000E2B6E2A8E60
:1010500032EF08F0000E286E000E296E000E2A6E88
:10106000000E2B6E2F50800B341A2F502F24396E08
:101070002EAE3DEF08F03FEF08F040EF08F039806A
:101080003950D8B446EF08F048EF08F05BEF08F0AD
:101090003928D8A44EEF08F050EF08F058EF08F0C8
:1010A000000E2C6E000E2D6E000E2E6E000E2F6E9A
:1010B0002E8E63EF08F0000E2C6E000E2D6E000ECB
:1010C0002E6E000E2F6E3950D8B469EF08F06BEF1A
:1010D00008F073EF08F03A50D8A471EF08F073EFFE
:1010E00008F07DEF08F0000E286E000E296E000E4D
:1010F0002A6E000E2B6E13EF0AF02E502802F3CF4B
:101100003FF0F4CF40F03F50356E366A376A386AA8
:1011100040503B6E3C6A3D6A3E6A2D502902F3CF37
:101120003FF0F4CF40F03F503526000E36223722F4
:10113000382240503B26000E3C223D223E222C50BD
:101140002A02F3CF3FF0F4CF40F03F503526000E97
:1011500036223722382240503B26000E3C223D22C8
:101160003E2237C038F036C037F035C036F0356A29
:101170002C502902F3CF3FF0F4CF40F03F503526FA
:1011800040503622000E3722000E38222D50280201
:10119000F3CF3FF0F4CF40F03F5035264050362299
:1011A000000E3722000E382237C038F036C037F034
:1011B00035C036F0356A2C502802F3CF3FF0F4CF1B
:1011C00040F03F50352640503622000E3722000EA8
:1011D00038222E502902F3CF3FF0F4CF40F03F5099
:1011E0003B2640503C22000E3D22000E3E222D5058
:1011F0002A02F3CF3FF0F4CF40F03F503B2640505F
:101200003C22000E3D22000E3E222E502A02F3CF39
:101210003FF0F4CF40F03F50306E4050316E326AB4
:10122000336A32C033F031C032F030C031F0306A4E
:1012300030503B2631503C2232503D2233503E222A
:1012400035C030F036C031F037C032F038C033F03E
:10125000190E30EF09F0D890333232323132303259
:10126000E82E2BEF09F030503B2631503C22325013
:101270003D2233503E2237C038F036C037F035C0FB
:1012800036F0356A39503AC030F0316A3026000EF7
:101290003122820E30243F6EFF0E3120406E66EF09
:1012A00009F0D8903B363C363D363E3638AE5BEFE3
:1012B00009F05DEF09F05EEF09F03B80D89035361C
:1012C0003636373638363F06D8A040063DAE6BEF8F
:1012D00009F06DEF09F051EF09F0396A38AE73EF9C
:1012E00009F075EF09F099EF09F0FF0E3514306E33
:1012F000FF0E3614316EFF0E3714326E7F0E381427
:10130000336E3050311032103310D8B48AEF09F0F8
:101310008CEF09F090EF09F0010E396E99EF09F0AA
:101320003BA095EF09F097EF09F099EF09F08CEFEA
:1013300009F03950D8B49FEF09F0A1EF09F0C5EFDB
:1013400009F0010E3B26000E3C223D223E223EA02B
:10135000ACEF09F0AEEF09F0C5EF09F03BC030F09B
:101360003CC031F03DC032F03EC033F03334333254
:1013700032323132303230C03BF031C03CF032C01A
:101380003DF033C03EF03F4A402A40BED0EF09F066
:10139000405008E13F28D8A0D0EF09F0D2EF09F083
:1013A000DCEF09F0000E3B6E000E3C6E800E3D6ED1
:1013B0007F0E3E6E09EF0AF040BEE9EF09F04050A3
:1013C00006E13F04D8B0E7EF09F0E9EF09F0F4EFE8
:1013D00009F0000E3B6E000E3C6E000E3D6E000EDE
:1013E0003E6E346A09EF0AF03FC03AF0FF0E3B163A
:1013F000FF0E3C167F0E3D16000E3E163AA003EF80
:101400000AF005EF0AF006EF0AF03D8ED8903A3068
:101410003E6E34503E123BC028F03CC029F03DC027
:101420002AF03EC02BF012001250800B1F6E12509B
:101430001224266E11AE1FEF0AF021EF0AF022EF00
:101440000AF026802650D8B428EF0AF02AEF0AF0D6
:101450003EEF0AF02628D8A430EF0AF032EF0AF067
:101460003AEF0AF0000E0F6E000E106E000E116EB5
:10147000000E126E118E126A46EF0AF0000E0F6E09
:10148000000E106E000E116E000E126E1650800BC4
:101490001F1A16501624276E15AE51EF0AF053EF9F
:1014A0000AF054EF0AF027802750D8B45AEF0AF018
:1014B0005CEF0AF070EF0AF02728D8A462EF0AF078
:1014C00064EF0AF06CEF0AF0000E136E000E146E5B
:1014D000000E156E000E166E158E166A78EF0AF065
:1014E000000E136E000E146E000E156E000E166EBA
:1014F0001350141015101610D8A481EF0AF083EFC2
:101500000AF09BEF0AF0000E0F6E000E106E000E38
:10151000116E000E126E800E11127F0E12121F50ED
:1015200012120FC00FF010C010F011C011F012C055
:1015300012F0DBEF0BF02650D8A4A1EF0AF0A3EFD6
:101540000AF0ADEF0AF0000E0F6E000E106E000EE6
:10155000116E000E126EDBEF0BF0275026C017F055
:10156000186A175E000E185A7F0E1724206E000EA0
:101570001820216E0FC01BF010C01CF011C01DF010
:1015800012C01EF0000E0F6E000E106E000E116ED7
:10159000000E126E000E226E000E236E000E246EE0
:1015A000000E256E276A0DEF0BF02750D8B4DBEF45
:1015B0000AF0DDEF0AF0F4EF0AF0D8901B361C3683
:1015C0001D361E36D8900F3610361136123625AE1F
:1015D000ECEF0AF0EEEF0AF0EFEF0AF00F80D89090
:1015E000223623362436253613501B5C14501C58E3
:1015F00015501D5816501E58D8A001EF0BF003EFE0
:101600000BF00CEF0BF0258C13501B5E14501C5A82
:1016100015501D5A16501E5A272A190E276413EF0B
:101620000BF015EF0BF0D5EF0AF01B501C101D103E
:101630001E10D8B41EEF0BF020EF0BF038EF0BF0BC
:10164000228038EF0BF0D8900F3610361136123654
:1016500025AE2DEF0BF02FEF0BF030EF0BF00F80DE
:10166000D89022362336243625362006D8A02106E7
:1016700011AE3DEF0BF03FEF0BF023EF0BF0276ABD
:1016800025AE45EF0BF047EF0BF06BEF0BF0FF0EC5
:101690002214176EFF0E2314186EFF0E2414196EF9
:1016A0007F0E25141A6E1750181019101A10D8B47E
:1016B0005CEF0BF05EEF0BF062EF0BF0010E276EAC
:1016C0006BEF0BF00FA067EF0BF069EF0BF06BEF18
:1016D0000BF05EEF0BF02750D8B471EF0BF073EF07
:1016E0000BF097EF0BF0010E0F26000E10221122C7
:1016F000122212A07EEF0BF080EF0BF097EF0BF0B1
:101700000FC017F010C018F011C019F012C01AF075
:101710001A341A3219321832173217C00FF018C0A3
:1017200010F019C011F01AC012F0204A212A21BE6F
:10173000A2EF0BF0215008E12028D8A0A2EF0BF077
:10174000A4EF0BF0AFEF0BF0000E216E2068000E3F
:101750000F6E000E106E000E116E000E126E21BE86
:10176000BCEF0BF0215006E12004D8B0BAEF0BF02B
:10177000BCEF0BF0C9EF0BF0000E216E000E206ED7
:10178000000E0F6E000E106E000E116E000E126E27
:101790001F6A20C026F026A0D0EF0BF0D2EF0BF08E
:1017A000D5EF0BF0118ED6EF0BF0119ED8902630AE
:1017B000126E8FEF0AF01200096E0950D8B4E3EFF1
:1017C0000BF0E5EF0BF007EF0CF004BEECEF0BF0C5
:1017D000EAEF0BF007EF0CF001C005F002C006F0D5
:1017E00003C007F004C008F0051E061E071E081EF1
:1017F000052A000E06220722082205C00BF006C0AB
:101800000CF007C00DF008C00EF00FEF0CF001C097
:101810000BF002C00CF003C00DF004C00EF001503C
:10182000021003100410D8A418EF0CF01AEF0CF0FB
:1018300024EF0CF0000E016E000E026E000E036E1F
:10184000000E046EB5EF0CF0960E0A6E2EEF0CF043
:101850000A2AD8900E320D320C320B32000E0B14C5
:10186000056E000E0C14066E000E0D14076EFE0EB3
:101870000E14086E0550061007100810D8A443EF88
:101880000CF045EF0CF028EF0CF053EF0CF00A2AA7
:10189000010E0B26000E0C220D220E22D8900E32C5
:1018A0000D320C320B32000E0B14056E000E0C14B0
:1018B000066E000E0D14076EFF0E0E14086E055016
:1018C000061007100810D8A468EF0CF06AEF0CF0AF
:1018D00047EF0CF072EF0CF00A06D8900B360C367E
:1018E0000D360E360DBE77EF0CF079EF0CF081EF70
:1018F0000CF0020E0A607FEF0CF081EF0CF06CEF41
:101900000CF00AB086EF0CF088EF0CF089EF0CF0C9
:101910000D9ED8900A320AC005F0066A076A086A66
:1019200005C008F0076A066A056A05500B120650E2
:101930000C1207500D1208500E120950D8B4A3EF24
:101940000CF0A5EF0CF0ADEF0CF004BEACEF0CF01A
:10195000AAEF0CF0ADEF0CF00E8E0BC001F00CC036
:1019600002F00DC003F00EC004F012005BEC0DF0AD
:1019700001C04FF002C050F0000E136EC00E146E86
:101980007F0E156E440E166E4FC001F050C002F06F
:10199000036A046A000EDCEC0BF001C00FF002C019
:1019A00010F003C011F004C012F014EC0AF00FC0E4
:1019B00028F010C029F011C02AF012C02BF0330E0D
:1019C0002C6E330E2D6E530E2E6E400E2F6E01ECCC
:1019D00008F028C04BF029C04CF02AC04DF02BC0B5
:1019E0004EF04BC041F04CC042F04DC043F04EC0F1
:1019F00044F0120043EC0DF06DEC0DF00F0E7DEC99
:101A00000DF08A0E28EC0DF00B0E466E260E456E7C
:101A10005E0EE82EFED7452EFCD7462EFAD7B6EC42
:101A20000CF041C047F042C048F043C049F044C008
:101A30004AF00B0E466E260E456E5E0EE82EFED761
:101A4000452EFCD7462EFAD719EF0DF0F6EFFFF032
:101A5000046EA2EC0DF05E0E8CEC0DF0000E8CEC22
:101A60000DF004508CEC0DF098EC0DF0020E036EAE
:101A7000040E026EBA0EE82EFED7022EFCD7032EFD
:101A8000FAD700D01200020E026E040E016EBA0EDA
:101A9000E82EFED7012EFCD7022EFAD700D00F0178
:101AA0001A6B1A8F270E026F280E196F186B198B7D
:101AB000958A958C1200C0820D0EE82EFED700008C
:101AC000C092C0A066EF0DF068EF0DF061EF0DF071
:101AD000C2CF01F0C3CF02F012000E014781928005
:101AE000C18EFC0EC1168B9F8B51E00B0C098B6FC6
:101AF000030E8A6FE00E87171200026EA2EC0DF043
:101B00005E0E8CEC0DF0100E8CEC0DF002508CEC97
:101B10000DF098EC0DF01200016E01C003FF0F01F3
:101B20001AA195EF0DF097EF0DF08FEF0DF0120069
:101B30000F01188518B59FEF0DF0A1EF0DF09AEF8A
:101B40000DF012000F01188118B1A9EF0DF0ABEFE5
:101B50000DF0A4EF0DF0120000EE47F00A0EEE6A51
:0A1B6000E806FDE10001FAEF0CF0C9
:020000040001F9
:04FFEC00ACEF0DF079
:10FFF00080F4AFF012F0FFF7FBFFFBFC19F0F8F311
:00000001FF
