:04000000F6EFFFF028
:1010000000000450800B0D6E045004240F6E03AEDC
:101010000CEF08F00EEF08F00FEF08F00F800F5004
:10102000D8B415EF08F017EF08F02BEF08F00F28F1
:10103000D8A41DEF08F01FEF08F027EF08F0000E0E
:10104000016E000E026E000E036E000E046E038E23
:10105000046A33EF08F0000E016E000E026E000EFF
:10106000036E000E046E0850800B0E6E0D500E18AD
:10107000D8B43DEF08F03FEF08F040EF08F00D8CDA
:10108000085008240E6E07AE48EF08F04AEF08F04B
:101090004BEF08F00E800E50D8B451EF08F053EF2C
:1010A00008F067EF08F00E28D8A459EF08F05BEFBE
:1010B00008F063EF08F0000E056E000E066E000EDD
:1010C000076E000E086E078E086A6FEF08F0000EBC
:1010D000056E000E066E000E076E000E086E0F50B5
:1010E0000E5CD8B076EF08F078EF08F09FEF08F0CC
:1010F0000DAC7DEF08F07FEF08F081EF08F0800E77
:101100000D1A0FC010F00EC00FF010C00EF001C08D
:1011100010F005C001F010C005F002C010F006C0CC
:1011200002F010C006F003C010F007C003F010C0BA
:1011300007F004C010F008C004F010C008F0106AF6
:101140000F500EC009F00A6A095E000E0A5A0ABE64
:10115000B3EF08F00A5009E11A0E095CD8A0B3EF0A
:1011600008F0B5EF08F0ECEF08F0015002100310A2
:101170000410D8A4BEEF08F0C1EF08F0010EC2EFD2
:1011800008F0000E106E000E016E000E026E000ED2
:10119000036E000E046E0EC00FF0F5EF08F010A005
:1011A000D4EF08F0D6EF08F0DCEF08F0D89010305C
:1011B0000109106EDEEF08F0D890103201A0E3EFC5
:1011C00008F0E5EF08F0E6EF08F0108E0434043282
:1011D0000332023201320F2A0E500F5CD8A0F3EF17
:1011E00008F0F5EF08F0CFEF08F00DBCFAEF08F0CB
:1011F000FCEF08F03CEF09F00F50D8A402EF09F023
:1012000004EF09F00EEF09F0000E016E000E026E01
:10121000000E036E000E046E5BEF0AF0055001260F
:1012200006500222075003220850042204A01BEF9C
:1012300009F01DEF09F0C9EF09F010A022EF09F045
:1012400024EF09F02AEF09F0D89010300109106E50
:101250002CEF09F0D890103201A031EF09F033EFF4
:1012600009F034EF09F0108E0434043203320232F4
:1012700001320F2AC9EF09F00550015C06500258EF
:10128000075003580450800A096E0850800A095814
:10129000D8B04DEF09F04FEF09F07AEF09F00150A7
:1012A000055C096E025006580A6E035007580B6E13
:1012B000045008580C6EFF0E0924016EFF0E0A2020
:1012C000026EFF0E0B20036EFF0E0C20046E800ECC
:1012D0000D1A106C1050D8A470EF09F072EF09F0DD
:1012E00082EF09F0010E0126000E022203220422E1
:1012F00082EF09F00550015E0650025A0750035A6A
:101300000850045A0150021003100410D8A48BEFA7
:1013100009F08DEF09F0C2EF09F01050D8A493EF57
:1013200009F095EF09F0C2EF09F0000E016E000E12
:10133000026E000E036E000E046E5BEF0AF0D89092
:10134000013602360336043610AEA9EF09F0ABEFD2
:1013500009F0ACEF09F0018010A0B1EF09F0B3EF94
:1013600009F0B7EF09F0D8801036B9EF09F0D8903E
:1013700010360F50D8B4BFEF09F0C1EF09F0C2EF3B
:1013800009F00F0603AEC7EF09F0C9EF09F09FEFB0
:1013900009F00E6A10AECFEF09F0D1EF09F0E9EFD6
:1013A00009F010C009F07F0E0916D8B4DAEF09F081
:1013B000DCEF09F0E0EF09F0010E0E6EE9EF09F045
:1013C00001A0E5EF09F0E7EF09F0E9EF09F0DCEF44
:1013D00009F00E50D8B4EFEF09F0F1EF09F01CEF6F
:1013E0000AF0010E0126000E02220322042204A0AC
:1013F000FCEF09F0FEEF09F01CEF0AF001C009F064
:1014000002C00AF003C00BF004C00CF00C340C3224
:101410000B320A32093209C001F00AC002F00BC0D7
:1014200003F00CC004F00F28D8B419EF0AF01BEF3A
:101430000AF01CEF0AF00F2A0F28D8B422EF0AF0A6
:1014400024EF0AF02CEF0AF00F50D8A42AEF0AF08C
:101450002CEF0AF03DEF0AF0000E016E000E026E56
:10146000000E036E000E046E0F50D8A43AEF0AF07F
:101470003CEF0AF03DEF0AF00D6A0FA042EF0AF0D0
:1014800044EF0AF047EF0AF0038E48EF0AF0039E9C
:10149000D8900F30046E0DAE50EF0AF052EF0AF004
:1014A00053EF0AF0048E01C001F002C002F003C045
:1014B00003F004C004F012002D50800B366E2D5046
:1014C0002D243C6E2CAE67EF0AF069EF0AF06AEF4C
:1014D0000AF03C803C50D8B470EF0AF072EF0AF08A
:1014E00085EF0AF03C28D8A478EF0AF07AEF0AF0EA
:1014F00082EF0AF0000E2A6E000E2B6E000E2C6E8C
:10150000000E2D6E2C8E8DEF0AF0000E2A6E000E4E
:101510002B6E000E2C6E000E2D6E3150800B361A85
:10152000315031243B6E30AE98EF0AF09AEF0AF05A
:101530009BEF0AF03B803B50D8B4A1EF0AF0A3EF39
:101540000AF0B6EF0AF03B28D8A4A9EF0AF0ABEFF7
:101550000AF0B3EF0AF0000E2E6E000E2F6E000E92
:10156000306E000E316E308EBEEF0AF0000E2E6E21
:10157000000E2F6E000E306E000E316E3B50D8B450
:10158000C4EF0AF0C6EF0AF0CEEF0AF03C50D8A440
:10159000CCEF0AF0CEEF0AF0D8EF0AF0000E2A6E78
:1015A000000E2B6E000E2C6E000E2D6E6EEF0CF0EA
:1015B00030502A02F3CF41F0F4CF42F04150376E61
:1015C000386A396A3A6A42503D6E3E6A3F6A406AFA
:1015D0002F502B02F3CF41F0F4CF42F04150372689
:1015E000000E382239223A2242503D26000E3E2279
:1015F0003F2240222E502C02F3CF41F0F4CF42F094
:1016000041503726000E382239223A2242503D26D8
:10161000000E3E223F22402239C03AF038C039F055
:1016200037C038F0376A2E502B02F3CF41F0F4CF99
:1016300042F04150372642503822000E3922000E27
:101640003A222F502A02F3CF41F0F4CF42F041501A
:10165000372642503822000E3922000E3A2239C075
:101660003AF038C039F037C038F0376A2E502A02C5
:10167000F3CF41F0F4CF42F04150372642503822A8
:10168000000E3922000E3A2230502B02F3CF41F0E7
:10169000F4CF42F041503D2642503E22000E3F2200
:1016A000000E40222F502C02F3CF41F0F4CF42F035
:1016B00041503D2642503E22000E3F22000E402265
:1016C00030502C02F3CF41F0F4CF42F04150326E53
:1016D0004250336E346A356A34C035F033C034F06A
:1016E00032C033F0326A32503D2633503E223450FD
:1016F0003F223550402237C032F038C033F039C075
:1017000034F03AC035F0190E8BEF0BF0D89035322B
:10171000343233323232E82E86EF0BF032503D262F
:1017200033503E2234503F223550402239C03AF0E7
:1017300038C039F037C038F0376A3B503CC032F01F
:10174000336A3226000E3322820E3224416EFF0E9F
:101750003320426EC1EF0BF0D8903D363E363F3617
:1017600040363AAEB6EF0BF0B8EF0BF0B9EF0BF036
:101770003D80D8903736383639363A364106D8A0CB
:1017800042063FAEC6EF0BF0C8EF0BF0ACEF0BF02C
:101790003B6A3AAECEEF0BF0D0EF0BF0F4EF0BF06C
:1017A000FF0E3714326EFF0E3814336EFF0E3914ED
:1017B000346E7F0E3A14356E3250331034103510BB
:1017C000D8B4E5EF0BF0E7EF0BF0EBEF0BF0010E09
:1017D0003B6EF4EF0BF03DA0F0EF0BF0F2EF0BF0EF
:1017E000F4EF0BF0E7EF0BF03B50D8B4FAEF0BF04F
:1017F000FCEF0BF020EF0CF0010E3D26000E3E2218
:101800003F22402240A007EF0CF009EF0CF020EF40
:101810000CF03DC032F03EC033F03FC034F040C069
:1018200035F03534353234323332323232C03DF075
:1018300033C03EF034C03FF035C040F0414A422A48
:1018400042BE2BEF0CF0425008E14128D8A02BEF0C
:101850000CF02DEF0CF037EF0CF0000E3D6E000E8B
:101860003E6E800E3F6E7F0E406E64EF0CF042BE07
:1018700044EF0CF0425006E14104D8B042EF0CF0C6
:1018800044EF0CF04FEF0CF0000E3D6E000E3E6E7C
:10189000000E3F6E000E406E366A64EF0CF041C0E1
:1018A0003CF0FF0E3D16FF0E3E167F0E3F16000E5B
:1018B00040163CA05EEF0CF060EF0CF061EF0CF016
:1018C0003F8ED8903C30406E365040123DC02AF0DA
:1018D0003EC02BF03FC02CF040C02DF01200145041
:1018E000800B216E14501424286E13AE7AEF0CF086
:1018F0007CEF0CF07DEF0CF028802850D8B483EFFB
:101900000CF085EF0CF099EF0CF02828D8A48BEFA1
:101910000CF08DEF0CF095EF0CF0000E116E000E38
:10192000126E000E136E000E146E138E146AA1EF69
:101930000CF0000E116E000E126E000E136E000EF3
:10194000146E1850800B211A18501824296E17AEE7
:10195000ACEF0CF0AEEF0CF0AFEF0CF0298029509B
:10196000D8B4B5EF0CF0B7EF0CF0CBEF0CF02928A2
:10197000D8A4BDEF0CF0BFEF0CF0C7EF0CF0000ED9
:10198000156E000E166E000E176E000E186E178E76
:10199000186AD3EF0CF0000E156E000E166E000ED6
:1019A000176E000E186E1550161017101810D8A4C8
:1019B000DCEF0CF0DEEF0CF0F6EF0CF0000E116E29
:1019C000000E126E000E136E000E146E800E1312B7
:1019D0007F0E14122150141211C011F012C012F017
:1019E00013C013F014C014F036EF0EF02850D8A432
:1019F000FCEF0CF0FEEF0CF008EF0DF0000E116E96
:101A0000000E126E000E136E000E146E36EF0EF006
:101A1000295028C019F01A6A195E000E1A5A7F0E52
:101A20001924226E000E1A20236E11C01DF012C060
:101A30001EF013C01FF014C020F0000E116E000E37
:101A4000126E000E136E000E146E000E246E000E49
:101A5000256E000E266E000E276E296A68EF0DF0C7
:101A60002950D8B436EF0DF038EF0DF04FEF0DF0F0
:101A7000D8901D361E361F362036D89011361236B5
:101A80001336143627AE47EF0DF049EF0DF04AEF4D
:101A90000DF01180D890243625362636273615507D
:101AA0001D5C16501E5817501F5818502058D8A0AB
:101AB0005CEF0DF05EEF0DF067EF0DF0278C155029
:101AC0001D5E16501E5A17501F5A1850205A292AA8
:101AD000190E29646EEF0DF070EF0DF030EF0DF080
:101AE0001D501E101F102010D8B479EF0DF07BEFA1
:101AF0000DF093EF0DF0248093EF0DF0D890113698
:101B000012361336143627AE88EF0DF08AEF0DF03B
:101B10008BEF0DF01180D8902436253626362736E7
:101B20002206D8A0230613AE98EF0DF09AEF0DF021
:101B30007EEF0DF0296A27AEA0EF0DF0A2EF0DF0B9
:101B4000C6EF0DF0FF0E2414196EFF0E25141A6E49
:101B5000FF0E26141B6E7F0E27141C6E19501A10D0
:101B60001B101C10D8B4B7EF0DF0B9EF0DF0BDEF9E
:101B70000DF0010E296EC6EF0DF011A0C2EF0DF0B1
:101B8000C4EF0DF0C6EF0DF0B9EF0DF02950D8B449
:101B9000CCEF0DF0CEEF0DF0F2EF0DF0010E1126AF
:101BA000000E12221322142214A0D9EF0DF0DBEF45
:101BB0000DF0F2EF0DF011C019F012C01AF013C0C1
:101BC0001BF014C01CF01C341C321B321A321932A8
:101BD00019C011F01AC012F01BC013F01CC014F091
:101BE000224A232A23BEFDEF0DF0235008E12228CC
:101BF000D8A0FDEF0DF0FFEF0DF00AEF0EF0000E94
:101C0000236E2268000E116E000E126E000E136E0F
:101C1000000E146E23BE17EF0EF0235006E12204CF
:101C2000D8B015EF0EF017EF0EF024EF0EF0000E07
:101C3000236E000E226E000E116E000E126E000E4C
:101C4000136E000E146E216A22C028F028A02BEF1C
:101C50000EF02DEF0EF030EF0EF0138E31EF0EF090
:101C6000139ED8902830146EEAEF0CF01200096E23
:101C70000950D8B43EEF0EF040EF0EF062EF0EF0D8
:101C800004BE47EF0EF045EF0EF062EF0EF001C01C
:101C900005F002C006F003C007F004C008F0051EFE
:101CA000061E071E081E052A000E0622072208220D
:101CB00005C00BF006C00CF007C00DF008C00EF018
:101CC0006AEF0EF001C00BF002C00CF003C00DF083
:101CD00004C00EF00150021003100410D8A473EFDA
:101CE0000EF075EF0EF07FEF0EF0000E016E000E9D
:101CF000026E000E036E000E046E10EF0FF0960ED3
:101D00000A6E89EF0EF00A2AD8900E320D320C328C
:101D10000B32000E0B14056E000E0C14066E000E36
:101D20000D14076EFE0E0E14086E055006100710F7
:101D30000810D8A49EEF0EF0A0EF0EF083EF0EF087
:101D4000AEEF0EF00A2A010E0B26000E0C220D2219
:101D50000E22D8900E320D320C320B32000E0B14C4
:101D6000056E000E0C14066E000E0D14076EFF0EAD
:101D70000E14086E0550061007100810D8A4C3EF03
:101D80000EF0C5EF0EF0A2EF0EF0CDEF0EF00A064A
:101D9000D8900B360C360D360E360DBED2EF0EF047
:101DA000D4EF0EF0DCEF0EF0020E0A60DAEF0EF068
:101DB000DCEF0EF0C7EF0EF00AB0E1EF0EF0E3EF4C
:101DC0000EF0E4EF0EF00D9ED8900A320AC005F036
:101DD000066A076A086A05C008F0076A066A056AA3
:101DE00005500B1206500C1207500D1208500E121F
:101DF0000950D8B4FEEF0EF000EF0FF008EF0FF02F
:101E000004BE07EF0FF005EF0FF008EF0FF00E8E96
:101E10000BC001F00CC002F00DC003F00EC004F0C6
:101E200012008DEC0FF001C04DF002C04EF0000E1C
:101E3000156EC00E166E7F0E176E440E186E4DC0D6
:101E400001F04EC002F0036A046A000E37EC0EF097
:101E500001C011F002C012F003C013F004C014F06E
:101E60006FEC0CF011C02AF012C02BF013C02CF054
:101E700014C02DF0000E2E6E400E2F6E4E0E306EE2
:101E8000450E316E5CEC0AF02AC049F02BC04AF0D6
:101E90002CC04BF02DC04CF00A0E056EDF0E066E06
:101EA000850E076EC40E086E49C001F04AC002F0EC
:101EB0004BC003F04CC004F001EC08F001C011F07D
:101EC00002C012F003C013F004C014F0000E156E2F
:101ED000000E166E000E176E400E186E6FEC0CF0B2
:101EE00011C045F012C046F013C047F014C048F0CE
:101EF00012009FEC0FF011EC0FF0050E446E0F0E68
:101F0000436EF10EE82EFED7432EFCD7442EFAD7AF
:101F100000007BEF0FF0F6EFFFF0C0820D0EE82E11
:101F2000FED70000C092C0A098EF0FF09AEF0FF01C
:101F300093EF0FF0C2CF01F0C3CF02F012000E01F9
:101F400047819280C18EFC0EC1168D8B8B9F8B5169
:101F5000E00B0C098B6F030E8A6FE00E87171200DF
:101F600000EE45F00A0EEE6AE806FDE1000179EFA9
:021F70000FF070
:020000040001F9
:04FFEC00B0EF0FF073
:10FFF00080F4AFF012F0FFF7FBFFFBFC19F0F8F311
:00000001FF
